:10000000007F0020996D0100D91B0300ED6D0100F8
:10001000ED6D0100ED6D0100ED6D010000000000CF
:10002000000000000000000000000000616A010004
:10003000ED6D010000000000096A0100694C01003B
:10004000596D0100336A0300596D0100596D0100BB
:10005000596D0100596D0100596D0100596D010084
:10006000FB690300596D0100596D0100196A030015
:10007000596D0100596D0100596D0100596D010064
:10008000596D0100596D0100596D0100596D010054
:10009000596D0100596D0100596D0100596D010044
:1000A000596D0100596D0100596D0100596D010034
:1000B000596D0100596D0100596D0100596D010024
:1000C000596D0100596D0100596D0100596D010014
:1000D000596D0100596D0100596D0100596D010004
:1000E000596D0100596D0100596D0100596D0100F4
:1000F000596D0100596D0100596D0100596D0100E4
:1001000053B94AB9002908BF00281CBF4FF0FF317E
:100110004FF0FF3000F06CB9ADF1080C6DE904CE82
:1001200000F006F8DDF804E0DDE9022304B07047D2
:100130002DE9F047089E0D4604468E46002B40F000
:1001400082808A42174646D9B2FA82F24AB1C2F197
:10015000200105FA02F320FA01F1974041EA030E6B
:1001600094404FEA1748230CBEFBF8FCB9B208FBD9
:100170001CEE43EA0E430CFB01F098420AD9FB182F
:100180000CF1FF3580F01681984240F21381ACF1FA
:10019000020C3B441B1AA4B2B3FBF8F008FB10336B
:1001A00044EA034400FB01F1A14209D93C1900F1E2
:1001B000FF3380F00181A14240F2FE8002383C44CE
:1001C000641A40EA0C4000211EB1D4400023C6E965
:1001D0000043BDE8F08702B9FFDEB2FA82F2002ADE
:1001E0004FD1CB1B4FEA174E1FFA87F80121B3FB03
:1001F000FEFC250C0EFB1C3345EA034508FB0CF303
:10020000AB4207D97D190CF1FF3002D2AB4200F2AC
:10021000E7808446ED1AA3B2B5FBFEF00EFB105545
:1002200043EA054408FB00F8A04507D93C1900F152
:10023000FF3302D2A04500F2D7801846A4EB080491
:1002400040EA0C40C0E78B4208D9002E00F0AF8096
:100250000021C6E900050846BDE8F087B3FA83F13E
:1002600000294BD1AB4202D3824200F2B780841AFC
:1002700065EB030301209E46002EAAD0C6E9004E7E
:10028000A7E7C2F1200C01FA02F3974020FA0CF024
:100290004FEA174E21FA0CFC1843BCFBFEF1050C8B
:1002A0000EFB11CC1FFA87F845EA0C4501FB08F359
:1002B000AB4204FA02F409D97D1901F1FF3C80F048
:1002C0008B80AB4240F2888002393D44EB1A85B204
:1002D000B3FBFEF00EFB103345EA034500FB08F3C9
:1002E000AB4207D97D1900F1FF3C71D2AB426FD907
:1002F00002383D44EB1A40EA014178E7C1F1200C95
:100300008B4022FA0CF71F4320FA0CF405FA01F394
:100310004FEA174E25FA0CF51C43230CB5FBFEF9EA
:100320001FFA87F80EFB195543EA054509FB08FA41
:10033000AA4502FA01F200FA01F308D97D1909F180
:10034000FF3047D2AA4545D9A9F102093D44A5EBA2
:100350000A05A4B2B5FBFEF00EFB105544EA0544B5
:1003600000FB08F8A04507D93C1900F1FF352DD254
:10037000A0452BD902383C4440EA0940A4EB0804CC
:10038000A0FB02894C45C6464D4619D316D05EB136
:10039000B3EB0E0264EB050404FA0CFCCA404CEA11
:1003A0000202CC40C6E900240021BDE8F0873146B6
:1003B00030460EE7AC46EDE6184601E74345E6D287
:1003C000B8EB020E69EB07050138E0E72846D3E7F2
:1003D00060468FE78146BAE7614677E708464BE714
:1003E000ACF1020C3D4415E702383C4426E700BF5F
:1003F000704700BFF8B515460A4A1C4656682EB12C
:1004000001B02A46B446BDE8F040604700208DF8B0
:10041000000068460CF03AF99DF80000281A207098
:100420000020F8BD00000020002819D003781349EF
:10043000134A13B1012B0ED011E00379012B00D028
:100440006BB943790BB1012B09D18368643B8B42B3
:1004500005D2C0680EE00379012B02D00BB1002059
:10046000704743790BB1012BF9D1C368643B8B42D0
:10047000F5D280689042F2D8012070473D86010095
:10048000FF1FA10710B5054C206810B18047002060
:100490002060BDE8104001F0C1BF0000080000204E
:1004A0002DE9F0410E46050004D000F045F807465E
:1004B00000240AE06FF01500BDE8F081204600F04E
:1004C00041F8807838B1641CE4B2BC42F6D300BF76
:1004D0006FF00B00F0E72746FF2CF9D0204600F024
:1004E00031F804460CF075FA27712146074801F0EF
:1004F0006DFFE070202805D00120A560A070377046
:100500000020D9E76FF02200D6E7000033C70000D3
:1005100010B5820702D06FF00D0010BD054A1170B2
:10052000506028B101EBC1018A0000210CF0D7FC1A
:10053000002010BD0C00002001480078704700002A
:100540000C00002005490A78904201D30020704732
:10055000496800EBC00001EB800070470C000020F0
:1005600070B50546202A27D019481A4C00EB831C89
:100570000CEB420004EB8303202922D00CEB410159
:1005800040784C784870204601460CEB410091427F
:1005900005704078F8D193F82220202A1ABF0CEB7E
:1005A0004202547083F8214020220CEB410C8CF85D
:1005B000012083F8221070BD40F29121702003F0D9
:1005C0001BF993F82040407883F82000DBE7000017
:1005D000440E0020C40E00202DE9FF4F0C4649892F
:1005E00087B001F5E1611546814200F2DA8005AA83
:1005F00002A902F0D9F802980A9F284420F07F400F
:100600000490A948A94E00EB8700039090F8205071
:100610002020E9460DF104088DF8000006F5407A27
:10062000202D18BF0AEB871B26D000BF05EB450025
:1006300006EBC0002168C268891A0902CA1701EBDB
:1006400012610830091217D4618971B1418961B909
:1006500000F0B4FD02F08CF82168081A0002C117FE
:1006600000EB11600012332806DB0BEB450089F824
:1006700000504578202DD9D199F8000088F8000065
:10068000A146202D1CBF8A4800EB871B00F0088183
:1006900005EB450106EBC10AD9F80410DAF8082089
:1006A0004846511A0902CA1701EB12610AF10807FC
:1006B000091215D47989002900F0F28041890029B6
:1006C00040F0EE8000F07AFD02F052F83968081A26
:1006D0000002C11700EB11600012332880F2E080A5
:1006E00088F800509AF8141099F80C00814206D945
:1006F0000BEB45004578202DCAD100F0D1B89DF80C
:10070000040000EB400006EBC005688AEF68002893
:100710003FD16089E8B3A8680CF0F9F9698A2A7CAE
:100720001144491C634A4318904204D940F21661AF
:10073000702003F061F86048814204DD40F21761E7
:10074000702003F059F85D48814204DA4FF4C36128
:10075000702003F051F85A489842DCBF03F5F703C4
:10076000A3F1F85305DD002BBCBFA3F5F70303F19C
:10077000F853184601F0FCFF20F07F40391A0902B7
:10078000CA1701EB126109123329BCBF333020F0C4
:100790007F470498381A0002C11700EB116000125D
:1007A00003D40BB00020BDE8F08FD4E90010401A4C
:1007B000384427F07F4120F07F40C4E900100398BF
:1007C000DDF828806F4690F8205020200DF1040AB3
:1007D0008DF80000202D1CBF354800EB881924D06F
:1007E00005EB450006EBC0002268C168511A0902FA
:1007F000CA1701EB12610830091216D4618971B170
:10080000418961B900F0DAFC01F0B2FF2168081AF1
:100810000002C11700EB11600012332805DB09EB61
:1008200045003D704578202DDAD138788AF80000EF
:100830002746202D1CBF1E4800EB881B30D005EB3F
:10084000450106EBC1097968D9F808203846511AE4
:100850000902CA1701EB126109F10808091212D442
:10086000B8F80A10E1B14189D1B900F0A7FC01F054
:100870007FFFD8F80010081A0002C11700EB1160C2
:10088000001233280CDA8AF8005099F81400397BEA
:1008900088427FF634AF0BEB45004578202DCED152
:1008A0000BB00120BDE8F08FC40E0020440B0020E7
:1008B000440E0020FF7F841E0020A10700E05EF8A8
:1008C0000080841E2DE9F05F04463C480E4600EB94
:1008D00086003B4F90F8205020209846924610709A
:1008E00007F54079202D18BF09EB861B28D000BFE3
:1008F00005EB450007EBC00000F10801C068226865
:10090000101A0002C21700EB1260001218D460899E
:1009100078B1488968B9084600F050FC01F028FF1A
:100920002168081A0002C11700EB11600012332879
:1009300006DB0BEB45008AF800504578202DD7D117
:100940009AF8000088F80000202D18BF09EB861ADD
:1009500030D005EB450107EBC1096168D9F80820E3
:100960002046511A0902CA1701EB126109F1080663
:10097000091210D47189E9B14189D9B900F01EFC7E
:1009800001F0F6FE3168081A0002C11700EB116091
:10099000001233280EDA88F8005099F81400217BF1
:1009A000884202D80020BDE8F09F0AEB4500457858
:1009B000202DCED10120BDE8F09F0000C40E002004
:1009C000440B00202DE9F74F4FF0000898B0164671
:1009D0000D46C34602F044F90446012D18BF022D0E
:1009E00005D040F693114FF0700002F005FFFD496D
:1009F00001200860FC498968086000200C90401EB6
:100A00000E90FA4906EB460001EBC00308330FAF26
:100A10000FCB87E80F000FA800F0D0FB0D90F34834
:100A2000BDF84690B0F89C03ADF84C00B9F1000F4A
:100A300014BF4FF0010A4FF0000A0F981490BAF15A
:100A4000000F09D0EA4890F82C0028B902F070FE97
:100A5000002808BF012700D00027E6480022159291
:100A600000781646012818BF032840D1E148B0F8A5
:100A70000280A8EB09001590C84538D90D9B6FEA94
:100A80000801DFF874E358180DF10C0C17AA734530
:100A900004D940F21661702002F0AEFED74B9942A5
:100AA00004DD40F21761702002F0A6FED44B99429B
:100AB00004DA4FF4C361702002F09EFED1498142F6
:100AC000DCBF00F5F700A0F1F85005DD0028BCBF41
:100AD000A0F5F70000F1F850614601F065FE0398BB
:100AE0000F9920F07F400390081A20F07F42002FDA
:100AF00018BF322604D19DF84C00002818BF0226EA
:100B0000B4F1807F08D00F98001B0002C11700EBE2
:100B100011600012012802DA042118980BE047B195
:100B2000B34890F82D0020B19DF84C00061C18BF6A
:100B3000022620460121B9F1000F02D0159B1E2B81
:100B400002DA9DF84C3013B14FF0010B491E8B199E
:100B5000A8499DF84DE0097815910F99891A21F05F
:100B60007F4CACEB00010902CE1701EB16610912B4
:100B7000994218DB002A18BFCDF83CC00F9E05979C
:100B8000002701F067FF301A0002C11700EB116067
:100B900000123E283FDA012D20D0701E059920F06A
:100BA0007F4019B32DE082B1BEF1000F04BF15994B
:100BB00003290AD027B99DF84C10002918BF9B1EA5
:100BC00000228DF84C209046C7E707BB9DF84C10DB
:100BD000E9B100218DF84C109B1EBEE7B4F1807F77
:100BE00020D140F60C11702002F006FEB4F1807F97
:100BF00007D0211A0902CA1701EB12610912042950
:100C000003DD044601F02CFF0CE000290ADD1BB0D7
:100C10000020BDE8F08F701E20F07F44204601F0D8
:100C20001FFF5746B4F1807F28D00F98DDF840C0F1
:100C3000001B8BF00103744A20F07F40ACEB040CE6
:100C40002CF07F4C834298BFB0F5800FDFD2624515
:100C5000DDD320460BF05BFF67490D9A4B1C161A3B
:100C6000B6EB930F24BFA0EB020CBCEB930F10D399
:100C7000B14208D2081A1044461C0AE040F62B2163
:100C8000702002F0B9FD61452CD2891A0844401C3D
:100C900046425748807F50B3284645464FF0000BE8
:100CA000D846012805D0022002F022F9012002F0E6
:100CB0001FF9A9452CD2A6EB05014FF001034FF017
:100CC00003024FF0020002F04BF8002808BF4FF07B
:100CD0000108B9F1000F35D00123A6EB0901032269
:100CE000184623E040F60B31702002F085FDC14527
:100CF00034BF40464846BBF1000F14BF00211E21FF
:100D00000844B042C8DB40F63E21702002F074FD7A
:100D100010D90123A6EB09010322184602F020F89E
:100D200028B37DB1711B01230322022002F018F8C1
:100D3000E8B107E055EA090004D040F676117020CA
:100D400002F05AFD012303223146002002F008F888
:100D500068B10125B8F1000F03D014980F908DF8F9
:100D60004CB0DFF8A880BAF1000F0ED109E00220E4
:100D700002F0BEF8012002F0BBF81BB00020BDE875
:100D8000F08F1B4890F82D0000B14FB3DFF860A042
:100D90009AF82C0018B102F093FB8AF82CB007B334
:100DA000A4F1320020F07F414FF40020C8F8000089
:100DB00000230322052001F0D3FF68B34FF08044E5
:100DC000052002F075F91249C1F81005C1F8144563
:100DD0001049E0120860064C94F82D00F0B35BE077
:100DE0001BE01FE00805004014000020440B002019
:100DF000C40E002016000020FF7F841E0020A107E3
:100E000000E05EF80080841EFFFF3F0008F501400F
:100E100098F0014004F5014035E0DFF8B8A09AF8F9
:100E20002C0058B32B4C94F82D0050B14FF40020F7
:100E3000C8F80000052002F05BF802F0A9FB84F876
:100E40002DB00CAC244894E80E10C0F88013C0F804
:100E50008423C0F88833C0F88CC300E018E010ACDD
:100E600094E80E10C0F89013C0F89423C0F898339B
:100E7000C0F89CC31BB00120BDE8F08F02F03CFB22
:100E80008AF82C508BE740F25131702002F0B4FC0C
:100E900002F070FB84F82D50A6EB0900A0F11901B7
:100EA000002904DC40F66821702002F0A5FC032232
:100EB0000123104601F054FF38B108488068C0F89B
:100EC00000B00748C0F800B0BBE740F673217020BF
:100ED00002F092FCC40E0020440B002014000020FD
:100EE000080500402DE9F043064683B0087890736A
:100EF000CF7A5773887A10730889144650810D464B
:100F00000A785F4999464FEA810C4B42ACF10108DF
:100F10005AB1C043D5F8048004F1080288423DDD8F
:100F200040F21761702002F067FCEE686D686FEAAE
:100F3000000904F1080206EB0900464504D940F215
:100F40001661702002F058FC8945E9DC994528DBE0
:100F50008445DCBF00F5F700A0F1F85005DD00285E
:100F6000BCBFA0F5F70000F1F850214601F01CFCD1
:100F7000206820F07F417019401C2160002F08BFBD
:100F80007A3003D0012F08BF44302DD101F0F0FB9F
:100F900020F07F40606003B0BDE8F08301469842D6
:100FA00004DA4FF4C361702002F026FC8445DCBFF4
:100FB000A1F1F450A0F5902005DD0028BCBF01F19F
:100FC000F45000F59020214601F0EEFB2068002F40
:100FD00020F07F4108F10100216008BF7A3008D07D
:100FE000012F08BF443004D040F2BE61702002F0EF
:100FF00003FC01F0BDFB20F07F416160608901AA24
:10100000694601F0D1FB1F4890F82F10202923D00A
:101010000069401D20F07F40D4E90021891A20603A
:10102000084420F07F4060604B4632462146E86825
:10103000FFF7D2FA00281CBF03B0BDE8F083D4E963
:101040000010401A304426F07F4120F07F40C4E970
:10105000001003B0BDE8F083608906F1090720B1F4
:1010600002F066FB002808BF323707484178009835
:10107000814284BF081A074427F07F40CCE7000074
:101080000020A107C40E00201600002010B5154C4A
:1010900094F82F00202818BF10BD94F82E2004EBE0
:1010A000820090F82010202917D0DFF83CC00CEB0C
:1010B000821303EB41035B7880F82030012380F832
:1010C000233084F82B3084F82F10022000F0B0F881
:1010D000002084F82A00A07710BD40F29E317020D5
:1010E00002F08AFBC40E0020440E00202DE9F05FC0
:1010F000DFF8B88098F82E5008EB850090F8214072
:10110000202C08BFBDE8F09FDFF8A4B0DFF8A4A052
:10111000AAF540790AEB8517072617F8140001286D
:101120000ED0042808BF02260AD005280CBF0326CB
:10113000062805D040F6D8014FF0700002F05CFBA5
:10114000BBF1000F18BFAFF30080EFF3108072B651
:1011500007EB44014A7808EB850181F8212091F8DA
:101160002220A24204BF202281F82220B8B12A46C0
:101170002146012000F05CF804EB440109EBC100BA
:1011800059F8312040683146904798F82E5008EBC6
:10119000850090F82140202CBCD1BDE8F09F064886
:1011A000002818BFAFF3008062B6E0E7C40E00204D
:1011B00000000000440E00200000000010B50446AE
:1011C00000680BF0A4FC02466089217A144B0844A5
:1011D000411C50189A4204D940F21661702002F066
:1011E0000BFB104A914204DD40F21761702002F0BF
:1011F00003FB0D4A914204DA4FF4C361702002F000
:10120000FBFA0A498142DEBF00F5F700A0F1F85071
:1012100010BD0028BCBFA0F5F70000F1F85010BDCC
:10122000FF7F841E0020A10700E05EF80080841E7E
:10123000DFF854C010B500230CEB821C07281ED227
:10124000DFE800F0050505050404040001230CF89F
:101250001100002B08BF10BD0C4800EB820292F871
:10126000220020280EBF82F821100CEB40004170B4
:1012700020200CEB4103587082F8221010BD40F280
:101280006721702002F0B8FA440E0020C40E00203E
:101290002DE9F34F83B05C48049900EB8100019085
:1012A00090F8204003982546012818BF022805D051
:1012B00040F6AF214FF0700002F09EFA0027202D7B
:1012C0004AD0514800910026807F002808BF02269E
:1012D00001F0C0FBDFF838A104EB44010AEBC101C7
:1012E000DFF828918A68C968121A091A22F07F4229
:1012F00021F07F41964298BFB2F5800F01D2894517
:1013000028D2444A009902EB811B22460BEB420192
:101310004C78202C16D004EB44010AEBC10CDCF80D
:101320000880DCF80CC0A8EB000828F07F48ACEB84
:10133000000121F07F41464598BFB8F5800FE4D207
:101340008945E2D3202A05D020210420009BFFF705
:1013500007F90446AC4215D12F48002818BFAFF357
:10136000008001F077FB284C94F8301020290DD034
:10137000E168821C511A0902CA1701EB12610912B5
:10138000002903DD05B00020BDE8F08F202D0DD031
:101390002A460399FFF716FB58B3019880F823708B
:1013A00084F8305005B00120BDE8F08F94F82C008F
:1013B00018B102F085F884F82C7094F82D0050B123
:1013C00016494FF400200860052001F091FD02F05D
:1013D000DFF884F82D70042001F08AFD01F0F0FDA3
:1013E000202084F830000E48806807600D480760B0
:1013F000D8E72A4620210420049BFFF7B1F805B066
:101400000020BDE8F08F0000C40E0020FFFF3F0069
:10141000440B0020440E00200000000008F50140AD
:101420001400002008050040064910B591F82F204F
:10143000202A1CBF887710BD40F2FD31702002F0D9
:10144000DBF90000C40E00202DE9F04F5B4E814611
:1014500085B096F82F008A4620284DD096F82F00A8
:1014600006F10C0400EB4000A6F5607808EBC0071D
:1014700020208DF8000096F82E0003AA06EB8000CD
:1014800001A990F82050306902903068484401F07A
:101490008BF9F86801994A4A0844A9F1640191421C
:1014A0002FD8B968411A21F07F41B1F5800F28D2B9
:1014B00020F07F406060304684F80CA090F82E0049
:1014C000EA46202D1CBF3F4901EB801B3CD005EBB9
:1014D000450008EBC0076068BA682146101A000290
:1014E000C21700EB126007F1080600121BD47089C6
:1014F00050B3488948B127E040F67331702002F0BC
:101500007BF905B00120BDE8F08F2046FFF756FEBD
:1015100001F02EF93168081A0002C11700EB1160C2
:101520000012332810DA8AF80050397D207B81427E
:1015300005D80298606005B00220BDE8F08F0BEB83
:1015400045004578202DC2D1052001F0D1FC1B4C6F
:101550004FF0FF30A06094F82E309DF8002020213D
:10156000202A13BF052004EB830090F82000FEF72B
:10157000F7FF94F82E20134901EB821194F82F20E5
:1015800001EB42014870206848442060012084F843
:101590002B00607E012805D12069401E20F07F408D
:1015A00001F0F8FA9DF80000202803D006484078A2
:1015B00002F0F2F905B00020BDE8F08FC40E002063
:1015C0009C1FA107440E00201400002070B5234A80
:1015D00092F82F10202939D092F82F10A2F56073BD
:1015E00001EB410103EBC10C92F82E1092F82E4052
:1015F00002EB810191F82010A2F1800505EB841423
:10160000202928D001EB410503EBC5052D7D85423E
:1016100084BF04EB41014978F2D801EB410103EBAF
:10162000C101DCF80C0089681468081A0002C117AF
:1016300000EB1160001207D40BF069FA04F16401A9
:10164000884224BF001B70BD002070BD40F64C31A5
:10165000702002F0D1F84FF0FF3070BDC40E0020B2
:101660000246144B10B508449A4204D940F2166160
:10167000702002F0C1F8104A914204DD40F2176177
:10168000702002F0B9F80D4A914204DA4FF4C361B8
:10169000702002F0B1F80A498142DEBF00F5F70080
:1016A000A0F1F85010BD0028BCBFA0F5F70000F174
:1016B000F85010BDFF7F841E0020A10700E05EF8F7
:1016C0000080841E104A0B1A02F1010CB3EB9C0F30
:1016D0003CBF1846704710B5441AB4EB9C0F3CBF92
:1016E000184610BD9A4203D2101A0844401C10BD7F
:1016F000A24204D2511A0844401C404210BD40F698
:101700000B31702002F078F8FF7F841E074991F8B2
:101710003020824204BF4868704700EB4000044913
:1017200001EBC0000830FFF749BD0000C40E0020E7
:10173000440B00200E4910B591F82F00202812D03C
:1017400091F82F00A1F5607200EB400002EBC000A1
:1017500091F82F10406801EB410152F83120BDE8AB
:1017600010400421104740F6BB01702002F044F8FD
:10177000C40E002070B56A4D6A49012605F56074F3
:1017800008287DD2DFE800F0046197A9C643AEB314
:1017900094F82C0018B901F0AFFE84F82C60E08AB0
:1017A00010B101F0C5FF88B1FFF770FC84F8296023
:1017B000A168B1F1FF3F05D001230322052001F00C
:1017C000CFFA40B1607E012810D109E040F66F01E8
:1017D000702002F011F840F67401702002F00CF84D
:1017E0002069401E20F07F4001F0D4F994F82F00CA
:1017F00094F82F1000EB400005EBC000406801EBAF
:10180000410155F83120BDE8704001211047FFF734
:101810003DFC4FF0FF30A06094F8290080B194F8AF
:101820002F0094F82F1000EB400005EBC00040683B
:1018300001EB410155F83120BDE870400621104709
:1018400040F68501702001F0D7FFFFF71FFC84F8F8
:10185000286001F06DFF18B194F82C0028B108E061
:1018600040F69501702001F0C7FF01F045FE84F8B5
:101870002C6094F82D0068B14FF400202A4900E054
:1018800048E00860052001F033FB01F081FE0020F4
:1018900084F82D0094F82F0094F82F1000EB4000EE
:1018A00005EBC000406801EB410155F83120BDE86F
:1018B00070400021104701F0CDFBE08A10B101F02B
:1018C00037FF28B119480078032808BF667770BD34
:1018D0004FF40A61702001F08FFF15480660886898
:1018E000066070BD0878BDE8704002F055B8FFF79B
:1018F000CDFB94F82F0094F82F1000EB400005EB7F
:10190000C000406801EB410155F83120BDE870404E
:101910000521104740F6B301702001F06DFF000073
:10192000440B00201400002008F5014016000020A0
:10193000080500402DE9F34F8246D1488BB000687E
:10194000D04DC005C00D0ED0103840B20028B8BF31
:1019500000F00F0000F1E020ACBF90F8000490F818
:10196000140D40090DD00C984FF0000B00780028A2
:1019700018BF012818D040F25C714FF0700001F0E0
:101980003BFF95F82F004FF0010B202807D00C9853
:10199000007848B14FF4EB61702001F02DFF40F268
:1019A0005571702001F028FFB74C24B1002140F29E
:1019B0005F70AFF30080B5490AEB4A0001EBC0004D
:1019C0004FF00108009024B1002140F26770AFF39E
:1019D0000080B8F1000F09D095F82E604FF0000993
:1019E00085F82B90BBF1000F07D02EE0A848002807
:1019F00018BFAFF3008062B6EEE73746012020EA59
:101A00000706A448402200EB871100EB86100BF07C
:101A1000ECF924B1002140F2DA50AFF3008005EB7D
:101A2000870105EB8600096A016224B1002140F2BA
:101A3000DE50AFF3008024B1002140F27170AFF3AB
:101A4000008095F82B000028BDD124B1002140F280
:101A50007B70AFF3008000F0FDFF8046334606AA9E
:101A60000C99FFF73FFA24B1002140F28270AFF3E6
:101A70000080884906A801EB861717F81A1001297B
:101A800018BF02293ED10699079BA1EB0801824AA3
:101A900021F07F41A3EB080323F07F4302296AD39F
:101AA000B1F5800F67D29A4265D34FF0010901ABBF
:101AB00005AA3146FEF706FF002864D09DF81410F1
:101AC0009DF8042033468A4261D00520FEF748FD88
:101AD0004FEA000107EB4A0041709DF814002028EE
:101AE00003BF05EB860080F820A080F8239007EB69
:101AF000400018BF80F801A0324651465FF0030055
:101B0000FFF796FB05EB860090F8237024B10021C7
:101B100040F28970AFF300806048002818BFAFF32F
:101B20000080EFF3108872B624B1002140F28F706C
:101B3000AFF3008095F82B0000287FF444AF24B168
:101B4000002140F29770AFF300800DF1180E00985D
:101B50009EE80E1000F10800B9F1000F80E80E10A9
:101B600042D024B1002140F2A470AFF30080BBF159
:101B7000000F2BD115E0324651460420FFF758FBE9
:101B80004FF00109BEE7324651460420B8E720294C
:101B900019BF07EB4100417805EB860090F8201053
:101BA00098E79FB195F82F0020280FD124B100218C
:101BB00040F2A970AFF3008031460220FFF768FBC6
:101BC00020B90C980078E8B3012849D024B100214D
:101BD00040F2C670AFF3008085F82E60012085F8D2
:101BE0002B0000BF4FF0010924B1002140F2CF705B
:101BF000AFF30080B8F1000F3BD024B1002140F2D8
:101C0000D370AFF30080B9F1000F11D095F82E001A
:101C100005EB800090F82100202809D024B1002194
:101C200040F2DA70AFF300801D48407801F0B4FE56
:101C300024B1002140F2DF70AFF300800DB04846C0
:101C4000BDE8F08FFFE724B1002140F2B170AFF39F
:101C5000008095F82E2051460420FFF7E9FAC1E7ED
:101C6000002C3FF4B0AE002140F2BC70AFF3008016
:101C7000A9E60748002818BFAFF3008062B6BCE7AA
:101C800004ED00E0C40E002000000000440B002022
:101C900000000000440E0020FFFF3F000000000095
:101CA000140000202DE9F14FA34886B00068C0055C
:101CB000C00D11D0103840B20028B8BF00F00F009E
:101CC00000F1E020ACBF90F8000490F8140D40093A
:101CD00008BF4FF0010901D04FF0000906980078C5
:101CE00000284FF000001CBF07B0BDE8F08FDFF800
:101CF0004CA2934D934C4FF0000B049025B1002162
:101D000040F26560AFF3008094F82E6084F82BB049
:101D10004FF0000825B1002140F26A60AFF3008067
:101D2000B9F1000F1DD13746012020EA0706864889
:101D3000402200EB871100EB86100BF056F825B11E
:101D4000002140F2DA50AFF3008004EB870104EB8E
:101D50008600096A016225B1002140F2DE50AFF32E
:101D6000008025B1002140F27260AFF3008000F0E6
:101D700071FE074633466A460699FFF7B3F825B168
:101D800000214FF4CF60AFF3008094F82F0020289B
:101D900014D020690099091A0902CA1701EB1261CF
:101DA00009120BD5DDE90021891A20F07F42084491
:101DB00020F07F40CDE900204FF001084DB1002117
:101DC00040F28260AFF3008000214FF4D160AFF3A6
:101DD000008000980199C01BC91B20F07F4021F0B2
:101DE0007F41B0F5800F05D28A4503D3B9F1000FCA
:101DF0000CD103E0B9F1000F38D094E033463A46F5
:101E000069465248FEF7E8FB48EA0008B8F1000FBF
:101E100022D000980AF07BFEBDF80A109DF8082039
:101E20004B4B1144491C4218984241D847488142C3
:101E30005ADC404281425FDB581C9042DCBF02F515
:101E4000F702A2F1F85205DD002ABCBFA2F5F702A5
:101E500002F1F8520698C26001200490002D62D071
:101E6000002140F29B60AFF300805CE0BDF80A0007
:101E700005AA04A900F098FC94F82F0020281CD093
:101E80002069401D20F07F40DDE90021891A0144CE
:101E900021F07F41CDE900010AF039FEBDF80A10BA
:101EA0009DF808202A4B1144491C4218984218D921
:101EB00040F21661702001F09FFCBDF80A0007F1A6
:101EC000090620B101F034FC002808BF3236214851
:101ED00041780498814284BF081A064426F07F4066
:101EE000D2E71A48814204DD40F21761702001F008
:101EF00083FC1948814204DA4FF4C361702001F079
:101F00007BFC16489042DCBF02F5F702A2F1F852C2
:101F100005DD002ABCBFA2F5F70202F1F8520698CF
:101F2000C2600120049094F82B0000287FF4E6AEF4
:101F3000049807B0BDE8F08F04ED00E0FFFF3F001C
:101F400000000000C40E0020440E00200020A10765
:101F5000FF7F841E1600002000E05EF80080841ED3
:101F60002DE9F14F804D8CB095F82E00002009909E
:101F700001207E4C4FF00008A5F1800783460890B1
:101F800024B1002140F2EE70AFF30080089890B3C6
:101F900085F82B8024B1002140F2F370AFF300806C
:101FA00095F82E9040222BEA090607EB861007EBE6
:101FB000891182460AF019FF24B1002140F2DA505B
:101FC000AFF3008005EB860005EB89010090096AFC
:101FD000016224B1002140F2DE50AFF3008095F899
:101FE0002B0080B1002C1CBF002140F2F970C7D03B
:101FF000AFF30080C4E7FFE75D48002818BFAFF3E8
:10200000008062B6C4E724B1002140F2FD70AFF356
:1020100000800C981AF81000032878D1DDF80090A1
:10202000CDF818900C9999F82000884214BF4FF011
:10203000000A4FF0010A09F1200C8646202207EB26
:10204000861303E0024603EB42004078884202D048
:1020500020280AD0F6E7202807D0864507D103EBD1
:102060004E0040788CF8000007E040460CE003EB9F
:10207000400003EB42014078487024B1002140F257
:102080004450AFF30080584610EA0A0F18BF89F891
:1020900023B0E0B324B1002140F60200AFF300808A
:1020A000324601200C99FFF7C3F8069890F8239068
:1020B00024B1002140F60D00AFF300802D48002828
:1020C00018BFAFF30080EFF3108072B6089024B110
:1020D000002140F61200AFF3008095F82B0038B1D4
:1020E000002C1CBF002140F616003FF449AF7FE7EB
:1020F000B9F1000F08D095F82F00202804D13146FF
:102100000220FFF7C5F8F8B134B1002100E009E082
:1021100040F62A00AFF3008085F82E6085F82BB0DA
:102120000120099024B1002140F63300AFF3008074
:10213000089888B124B1002140F63700AFF3008041
:1021400009980DB0BDE8F08F002CF1D0002140F6C9
:102150002500AFF30080E6E70548002818BFAFF37D
:10216000008062B6E6E70000C40E00200000000018
:10217000000000000000000010B5202811D20E4918
:1021800091F82E30A1F1800202EB831C1CF8103074
:102190003BB191F82E3002EB831212F81020012A85
:1021A00001D0002010BD91F82E2001460020FFF73D
:1021B0003FF8012010BD0000C40E00202DE9F05FA3
:1021C0007E4E804696F82E00A6F1800707EB801021
:1021D00010F81800002865D096F82E90784D25B19B
:1021E000002140F6B930AFF3008007EB891414F8F2
:1021F0001800012818D0C0B204281CBF05280628E2
:1022000055D02DB14FF0000140F6C530AFF300803E
:1022100001F018FC25B1002140F6C930AFF3008071
:1022200014F818000128E6D1012425B100214FF44B
:102230003D60AFF30080A4B3002086F82B0025B1E9
:10224000002140F6D530AFF3008096F82EB0012083
:1022500020EA0B0907EB8B1107EB891040220AF0EB
:10226000C4FD25B1002140F2DA50AFF3008006EB47
:102270008B0006EB890A006ACAF8200025B100210C
:1022800040F2DE50AFF3008096F82B00E0B1002D55
:102290001CBF002140F6DB30C7D000BFAFF3008089
:1022A000C3E70AE04FF43B61702001F0A5FA4A460B
:1022B00041460120FEF7BCFFACE74248002818BFAA
:1022C000AFF3008062B6B7E725B1002140F6DF30FA
:1022D000AFF300809AF821300AF1210140461C46F4
:1022E0004FF0200B07EB89120AF1220A04E0A34603
:1022F00002EB4B0C9CF80140844202D0202C2BD0E6
:10230000F5E7202C28D0A34204D102EB430040780B
:10231000087005E002EB440002EB4B014078487086
:10232000BAF1000F11D025B1002140F23C50AFF3BB
:1023300000809AF80000A04207D125B1002140F2A8
:102340003F50AFF300808AF800B05DB1002140F249
:102350004450AFF3008000E025B1002140F6E330A7
:10236000AFF300801848002818BFAFF30080EFF3E8
:10237000108472B696F82B0038B1002D1CBF0021D6
:1023800040F6E9303FF451AF88E786F82E900120FF
:1023900086F82B0054B1002D08BFBDE8F09F002146
:1023A00040F6F630AFF30080BDE8F09F0548002806
:1023B00018BFAFF3008062B6EDE70000C40E002046
:1023C00000000000000000000000000070B50D4695
:1023D000064601F09BF90F4890F82E200024803823
:1023E00000EB821010F8141029B1611CCCB2202C23
:1023F000F8D3202070BD084804EB440140F8316058
:1024000000EBC100214645600120FEF711FF204688
:1024100070BD0000C40E0020440B00202DE9F04FD9
:1024200083B000F017FB054600F0CAFD634CA068BE
:10243000B0F1FF3F1CBF4FF0FF30A060A07FDFF87E
:1024400080B1A8B9D4E90301081A0002C11700EB52
:10245000116000124FF40C710AF086FB21690844E8
:10246000281A0002C11700EB11600012C00F0BD038
:10247000607EE8B100F0FAFB94F82A00F0B140F277
:102480005441702001F0B8F994F82F0094F82F10FF
:1024900000EB40000BEBC000406801EB41015BF832
:1024A00031200821904740F24341702001F0A4F907
:1024B000E81C20F07F4000F0D3FADDE74FF0010A7E
:1024C00084F82AA094F82F00202824D094F82F8094
:1024D000202084F82F0084F83000002684F828603B
:1024E00084F82960374826600078022816BF032840
:1024F00001200020207794F82E7004EB870999F8CA
:102500002000202831D000EB40000BEBC000817D83
:10251000012905D029E040F25741702001F06CF903
:10252000AB4600F10805408A01AA694600F03CF973
:1025300094F82F00202804D02069401D20F07F400F
:102540000BE068890BF1090B28B101F0F1F80028C4
:1025500008BF0BF1320B2BF07F40D5E90021891A1F
:102560002860084420F07F40686039460120FEF76B
:102570008FFE0028F9D0144800EB871010F81800DF
:10258000022804D13A4641460620FEF751FE84F85F
:102590002BA099F82100202803D00C48407801F0A6
:1025A000FBF9207F002804BF03B0BDE8F08F00F0E6
:1025B00051FD2677667703B0BDE8F08FC40E00208A
:1025C000440B002016000020440E002014000020C0
:1025D00010B5304C82B094F82F10202908D0A16893
:1025E000B1F1FF3F09D040F6E821702001F004F975
:1025F00040F6E721702001F0FFF862680146264BA3
:1026000050189A4204D940F21661702001F0F4F893
:10261000224A914204DD40F21761702001F0ECF88B
:102620001F4A914204DA4FF4C361702001F0E4F8CC
:102630001C498142DCBF00F5F700A0F1F85005DD30
:102640000028BCBFA0F5F70000F1F85001AA6946C8
:1026500000F0AAF89DF804000F288CBF012000208C
:102660000099084420F07F41A16094F829000028D7
:1026700004BF02B010BD01230322052000F070FB4F
:1026800000281CBF02B010BD4FF42F61702001F074
:10269000B3F80000C40E0020FF7F841E0020A107B5
:1026A00000E05EF80080841E70B51E4C202184F886
:1026B000201084F8211084F82210002084F82300D0
:1026C00084F82E0084F82F10421EA2602060A077AC
:1026D00084F8280084F829002077607784F8301087
:1026E000114984F82C0084F82D0008704870488047
:1026F000A4F182011022887001F8040F521EFAD151
:102700000A4D012684F82A60FF202870084801F04D
:1027100025F9687001F080F9A86000F0E3FC84F806
:10272000316070BDC40E002016000020140000208F
:10273000ED10000070B50546012000FA05F40E46C4
:10274000002A08BF08480CD0002000F0B1FCE900C6
:1027500001F1804101F5F831C1F81005C1F81465A7
:102760000248046070BD000008F5014004F5014016
:10277000410B48F2376251430A0C094B510202FBEC
:1027800003020848504300F586306E30400D5B422E
:1027900010FB03F3B2EB532F88BF491C084470476A
:1027A000F7C2FFFF6F0C0100430B48F2376C03FBCD
:1027B0000CF330B41B0CDFF844C05C0203FB0C03C9
:1027C0000F4858434FEA505C04EB0C0043F60954A1
:1027D0001CFB04F404F5807C43F60855A3EB5C2C49
:1027E0002C440CF0FF0CB3EB542F84BF4FF0000CC3
:1027F000401C086082F800C030BC7047F7C2FFFF81
:102800006F0C01002DE9F041384CD4F80403DFF8D7
:10281000E08010F4803F4FF400664FF0E0274FF067
:1028200000051CBFD4F84001002817D0C4F840515F
:10283000C7F880622F480068D8F80010A0EB0100AC
:1028400020F07F40022802D3B0F5800F06D34FF46A
:102850008030C4F808030420FEF78CFFD4F804038A
:1028600010F4003F1CBFD4F84401002817D0C4F86E
:102870004451C7F8806220480068D8F80010A0EBE7
:10288000010020F07F40022802D3B0F5800F06D36C
:102890004FF40030C4F808030520FEF76BFFD4F8AE
:1028A000040310F4802F1ABFD4F848010028BDE8B3
:1028B000F081C4F84851C7F8806210480068D8F821
:1028C0000010A0EB010020F07F40022804D3B0F5F7
:1028D000800F38BFBDE8F0814FF48020C4F80803B2
:1028E000BDE8F0410620FEF745BF000000B0004003
:1028F00004B5004040B5004044B5004048B5004034
:102900002DE9F0413A4D287804286CD0E81C0122CA
:10291000017859B1012908BF6A7002D0697800298D
:102920005CD002210170407800F0E2FA314CD4F81A
:1029300004034FF0000810F4002F4FF480764FF09E
:10294000E0271CBFD4F84C01002808D04FF003004A
:1029500000F0CEFAC7F880620320FEF70BFFD4F830
:10296000040310F4802F1CBFD4F84801002808D0BD
:102970004FF0020000F0BCFAC7F880620220FEF7B8
:10298000F9FED4F8040310F4003F1CBFD4F844014E
:10299000002808D04FF0010000F0AAFAC7F88062C2
:1029A0000120FEF7E7FED4F8040310F4803F1ABFBD
:1029B000D4F840010028BDE8F0814FF0000000F09D
:1029C00097FAC7F8806204202870C5F80880C4F818
:1029D0000082BDE8F0410020FEF7CCBE40F2663137
:1029E0006C2000F009FFBDE8F0410720FEF7C2BEF1
:1029F0002000002000800040012213024FF0E0215F
:102A00000020C1F8803101F5C071BFF34F8FBFF3D3
:102A10006F8FC1F800310C494A60431EC1F808337A
:102A20000A4B1860C1F840011B1D1860C1F8440131
:102A30001B1D1860C1F848011B1D1860C1F84C012E
:102A40000A6103494870704700800040408500409B
:102A500020000020014800687047000004B50040D5
:102A60002DE9F05F414E0446F71E96F800C0F86865
:102A7000BCF1010F04BFA042BDE8F09F4FF0404100
:102A80003B4A11603B496FF48023C1F808333A4A4E
:102A90004FF00005BCF1000F57D06FF4A023C1F830
:102AA00048331560C1F84451D1F848214FF0E0296E
:102AB0004FF00108002A04BF4FF40062C9F88022D9
:102AC0004FF48033C1F80833C1F84833C1F840519E
:102AD0002A4AD2F800A0A4EB0A0A2AF07F4BBBF1E5
:102AE000020F3CD34FF0020ABBF5800F37D2C1F87A
:102AF0004045C1F84433BCF1000F05D01168411ABC
:102B000021F07F410229F9D3C7F808803D70FFF713
:102B100073FF1B480560001DC0F800A01949042080
:102B200008601949C1F80C80BA68C1F80022810117
:102B3000C9F88012C9F80011144A41071160FC60FD
:102B4000707086F80080BDE8F09FC1F84833104BE4
:102B50001D60C1F840511560C1F84451A4E7C1F8A7
:102B6000405540F2EF116C2000F046FE230000209B
:102B700008F5014000B0004044B5004004B50040F5
:102B800004850040108500400080004004F50140AD
:102B900040B500402DE9F0412B4CE168814214BF63
:102BA00001220022DFF8A4C09CF80070022F02D09E
:102BB000002A38D003E0002A08BFBDE8F08162781F
:102BC00082B3234B4FF080421A60224B9513C3F817
:102BD0000853C3F848530026C3F840611E4AD2F890
:102BE0000080A0EB080828F07F48B8F1020F24D33A
:102BF000B8F5800F21D2C3F84005C3F844532FB174
:102C00001368CB1A23F07F43022BF9D3134B022115
:102C10004A071A60E06004208CF801008CF800106C
:102C2000BDE8F08104E040F2FD116C2000F0E4FD0D
:102C300040F201216C2000F0DFFDC3F8406540F256
:102C40000D216C2000F0D8FD200000202300002082
:102C500008F5014000B0004004B5004004F5014013
:102C60000148C06870470000200000202DE9F041B5
:102C700033486FF48024C0F80843DFF8C8C0324AF4
:102C800000219CF8003063B16FF4A024C0F84843E1
:102C90001160C0F8441100BFD0F84801012280B98A
:102CA00009E0C0F84843294C2160C0F84011116088
:102CB000C0F84411F0E74FF0E0244FF40060C4F88E
:102CC0008002022B04D040F219216C2000F094FD08
:102CD0001F4E30681F4CC01C20F07F40E3681E4D23
:102CE00098420BD03768DF1B27F07F47042F05D3AE
:102CF000B7F5800F02D2FFF7B3FE1BE03068181A59
:102D000020F07F40022813D3B0F5800F10D2134B70
:102D10004FF080401860A26021706A60EA60400055
:102D2000191F086004208CF801008CF8002001E0D5
:102D3000A2602170A068C5F80002BDE8F081000023
:102D400000B000402300002044B5004040B50040E2
:102D500004B50040200000200080004008F501403C
:102D60002DE9F047DFF874C101274FF000089CF807
:102D700000509CF801C007287ED2DFE800F0040470
:102D800004046A6A6A00564CE668B6F1807F04BFA4
:102D90006478002C02D0022D05D03CE04FF4137172
:102DA0006C2000F029FD4FEA8C0404F18046ACF160
:102DB00004042406A40D04F1804906F5004609F533
:102DC00030490024012D02D0022D11D020E0BCF1A9
:102DD000040F05D2D6F840A1BAF1000F18D104E0D3
:102DE000D9F840A1BAF1000F12D14FF000440FE022
:102DF000BCF1040F05D2D6F840A1BAF1000F07D1FB
:102E000004E0D9F840A1BAF1000F01D144F08044A8
:102E100014F0804FD5D1334C00F1100C07FA0CFCA4
:102E2000C4F808C38000204452B10764D0F840655C
:102E30008D1B25F07F45AA4298BFB5F5800F43D280
:102E4000C0F84015012B08BFC4F804C30120BDE839
:102E5000F08735B1844504D140F26F216C2000F039
:102E6000CBFC001FC0B2012B0CBF0124002403289F
:102E700006D340F2491100E02BE06C2000F0BCFCCE
:102E8000DFF864C000F1100307FA03F3CCF808334D
:102E9000CCF8483380006044C0F840814AB1134DFB
:102EA0002E688D1B25F07F45AA4298BFB5F5800F8F
:102EB0000AD2C0F84015002C18BFCCF80433CCF867
:102EC00044330120BDE8F087C0F840850020BDE80C
:102ED000F0874FF41D716C2000F08EFC2300002061
:102EE000200000200080004000B0004004B50040F9
:102EF000F8B50127002407284CD2DFE800F00404CD
:102F0000040416161600264A00F1100107FA01F112
:102F1000C2F8081381001144C1F84045C1F840418E
:102F2000204951F820000090F8BD1F4D011FCEB27E
:102F3000297879B16A7882420CD11C4A4FF040401E
:102F40001060012908BFFFF757FD2C7018494FF09A
:102F50008070C86006F1100007FA00F11548C0F84B
:102F60000813C0F84813B00000F1804000F530406D
:102F7000D0F84015104A1268891A21F07F410229C1
:102F800024BFC0F84045C0F840410C4850F8260026
:102F90000090F8BD40F2ED216C2000F02DFC000007
:102FA00000800040408100402300002008F50140DF
:102FB0002000002000B0004004B5004040B10040B7
:102FC0001E496FF48023C1F808331D481D4A90F84C
:102FD00000C00020BCF1000F0AD06FF4A023C1F89C
:102FE00048331060C1F84401D1F8481181B909E0B3
:102FF000C1F84833144B1860C1F840011060C1F8A3
:103000004401F1E74FF0E0224FF40061C2F8801272
:103010000E494FF0FF32C1F808230D4A1060C1F885
:103020004001121D1060C1F84401121D1060C1F86A
:103030004801121D1060C1F84C01704700B00040FB
:103040002300002044B5004040B50040008000400F
:1030500040850040084890F902000028B8BF70473A
:1030600000F01F01012202FA01F14009800000F185
:10307000E020C0F8001270472000002010B507289B
:103080000DD2DFE800F00404040406060600064939
:1030900002E0001F0549C0B201EB800010BD4FF4F3
:1030A00026716C2000F0A8FB4081004040B1004038
:1030B00010B507280DD2DFE800F00404040406066A
:1030C0000600064902E0001F0549C0B201EB80007E
:1030D00010BD4FF426716C2000F08EFB4081004043
:1030E00040B1004070B51948002404210470C01E8E
:1030F00001708905C160FFF77FFC01254FF0E02CCE
:10310000EB02CCF88031BFF34F8FBFF36F8FCCF859
:1031100080320F4A556095600E4801680029FCD145
:10312000481EC2F80803C2F848030B480460C2F8FE
:103130004041001D0460C2F84441001D0460C2F813
:103140004841CCF80031156070BD0000230000201C
:1031500000B0004004B5004040B500402DE9F0410A
:10316000164C607A002827D04FF480718D052846D0
:1031700009F01EFD80464FF48271284609F018FDC3
:1031800000260746B8F1000F09D00120C5F8080352
:10319000207920B12671E06908B18047E66137B136
:1031A000C5F804610220C5F8080300F06DFA404636
:1031B000BDE8F04100F05AB8BDE8F08130000020D1
:1031C00010B509F09FFD30B909F0BDFD18B909F03F
:1031D000F0FD002802D002490220086010BD000066
:1031E000340C004070B500F087F900F0A1FA094CEA
:1031F0004FF0804530B1FFF7E3FF01202861042044
:10320000A07204E00320A0720120C5F8040300208E
:10321000E07170BD3000002070B5134CA079F0B1A2
:10322000012803D0E179401E814218DA00F080FACB
:10323000054600F051FBA179012902D9E179491C29
:10324000E1710DB1616900E02169411A022902DAD8
:1032500011F1020F07DC0DB1606100E02061BDE8F3
:103260007040FFF7BFBF70BD300000202DE9F04770
:1032700006464FF080454FF48671284609F098FCC9
:1032800080464FF48871284609F092FC274C82460C
:10329000277804F1080009F0FFFC10B14FF4D57154
:1032A00016E04FF0010946B1A07A032805D10420A9
:1032B000A072FFF785FFC5F810900026B8F1000F47
:1032C00018D0C5F80C61A07A042804D04FF4DE7140
:1032D0006D2000F091FA09F015FD28B909F033FDD1
:1032E00010B909F066FD08B1114806600220A0720D
:1032F00000F0E6F8BAF1000F08D0C5F81061A07A26
:10330000022801D1FFF788FFC5F814903FB126705D
:10331000A07A022801D1FFF765FF00F0D1F8BDE8DF
:10332000F0470248083009F0CEBC00003000002011
:10333000340C00402DE9F0475C4C4FF00008064685
:10334000C4F81880437882780078E07263710127AE
:10335000A271BD0784F80780052824D2DFE800F0B9
:103360000F03051F2100A76109E000F0C5F8012146
:10337000284609F022FC0028F9D00220A06109F0BB
:1033800048FCB0B100F0EEF9217E01F00301884263
:103390000FD1B07950B10220C5F804036AE0444867
:1033A000ECE74448EAE74FF44C7149E000F0AEF92D
:1033B00060E0EF604FF4827AC5F80481A069C5F837
:1033C000180509F08BFC40B909F092FC28B909F006
:1033D000A6FC10B909F0B7FC38B14FF0805136485F
:1033E000D1F84412C1F34231016009F077FC40B9D1
:1033F00009F07EFC28B909F092FC10B909F0A3FC91
:1034000010B12D4810300760AF600220C5F80403EA
:10341000B07978BBD5F8040310F0020F0ED0DFF8B6
:103420009C90D9F80010C94341F30017D9F8001057
:1034300041F01001C9F800107F1C07E040F2F121B3
:103440006D2000F0D9F900BF00F0FCFA5146284683
:1034500009F0AEFB0028F7D000F058F92FB9D9F8E1
:10346000001021F01001C9F800100220C5F808036F
:10347000C5F80481A07970B1307860B900F058F9CE
:10348000064600F029FA6FF0004216B1C4E90420A4
:1034900001E0C4E904020121284609F08EFB08B1CD
:1034A00000F040F984F80A80BDE8F0873000002081
:1034B00001000200010003003C05004010ED00E0A7
:1034C00010B5EFF3108472B60A48417829B14178FB
:1034D000491E4170417829B108E040F20D116D207C
:1034E00000F08AF9807808B900F030F9002C00D19A
:1034F00062B610BD3000002010B5EFF3108472B634
:1035000006484178491C41704078012801D109F0F2
:103510006BFB002C00D162B610BD00003000002013
:10352000054810B5C17821B100210171C170FFF7C4
:10353000C7FF002010BD00003000002070B50C4C0B
:10354000E17861B90125E570E061FFF7D5FF00F092
:10355000EFF830B1E06910B180470020E061002051
:1035600070BD4FF080402571C0F80453F7E70000AC
:1035700030000020EFF3108072B604498A78521CA4
:103580008A70002800D162B6704700003000002029
:1035900010B5EFF3108472B60A48817829B18178AA
:1035A000491E8170417829B108E040F225116D2053
:1035B00000F022F9807808B900F0C8F8002C00D19A
:1035C00062B610BD300000202DE9F04104006FF01C
:1035D00015003CD02178042939D80029617838D0E9
:1035E000002934D1A178002931D1002009F0ABFAAB
:1035F000002009F09BFA4FF080484FF0FF31C8F8E7
:1036000008130026C8F80061C8F80461C8F80C6106
:10361000C8F81061144F7E70A088B88109F0DBFAF9
:10362000012508B1FD707D700121404609F0C5FA01
:1036300008B100F077F82046FFF77CFE7D7200208D
:1036400009F074FA4FF0E0213046C1F80051BDE8AE
:10365000F0810029FBD02029F9D8A1782129F6D8BA
:103660000129C2D1F3E70000300000200148808921
:1036700070470000300000200248807A002800D007
:103680000120704730000020F8B51F4DE87A00286F
:103690000FD1287E00F0030009F0ABFA002808D013
:1036A000EFF3108172B6FFF7E7FF18B1002900D1E0
:1036B00062B6F8BD0126AE7201B962B618204FF0AD
:1036C0008044C4F80803A6614FF42070ADF80000F0
:1036D000BDF80000411EADF80010F9D20027C4F873
:1036E0000C71C4F810710848083009F0E8FA2F701E
:1036F000FFF778FD6661687900F07F00C4F838054F
:103700001820C4F80403F8BD3000002010B5044CA4
:10371000207E00F0030009F06CFA0028F8D010BDFC
:10372000300000200149012008707047A8020020E5
:103730004FF08040D0F8000118B903480078002805
:1037400000D0012070470000A80200204FF0804008
:10375000012141600021C0F800110148017070474B
:10376000A80200200248006800F003007047000033
:103770001C04004010B531B1012907D04FF442714B
:1037800005A000F00FF8D0F8140401E0D0F8080408
:1037900000F0010010BD00006E72665F636C6F6325
:1037A0006B2E6800024A526802B11047FEE7000023
:1037B00050000020064810B5002101600121016081
:1037C000084609F03DFABDE81040012009F02BBA87
:1037D000FC1F0040074810B501214160891EC0F858
:1037E00008130C2009F02CFABDE810400C2009F059
:1037F0001ABA000000C00040FEB5104A5568E5B195
:10380000002203466E460A2403E0B0FBF4F0521C8B
:10381000D2B20028F9D1B0540AE000BFB3FBF4F0F3
:1038200004FB1030B3FBF4F3521ED2B23030B0546C
:10383000002AF3D13046A847FEBDFEE75000002025
:1038400070B5174C06460D46607810B14FF0FF304A
:1038500070BD06B9134E62602570FFF7ABFFFFF72E
:10386000B9FF3046FFF7B0FE0600F1D1FEF71CFFAE
:10387000FFF70AFF09F0B2F8284609F0D4F9012051
:10388000002D09DB05F01F0100FA01F16A09920021
:1038900002F1E022C2F800116070304670BD0000F5
:1038A0005000002062CC00000148407870470000C2
:1038B00050000020074890F90000002809DB00F0C4
:1038C0001F02012191404009800000F1E020C0F872
:1038D00000127047500000202DE9F04101264FF002
:1038E000E02231034FF000084046C2F88011BFF3D8
:1038F0004F8FBFF36F8F164CC4F800010C2009F0F6
:10390000BEF9144D2868C04340F30017286840F002
:1039100010002860C4F8046326607F1C02E000BF2A
:1039200000F090F8D4F800010028F9D01FB92868F9
:1039300020F010002860084805686660C4F8086335
:10394000C4F800810C2009F09AF92846BDE8F081FE
:1039500000C0004010ED00E008C5004010B5024670
:1039600005200C4904E000BF01EBC0031B7933B113
:10397000401EC0B2F8D24B216920FFF73DFF41F84D
:10398000302001EBC00100224A718A7101220A71C4
:1039900010BD0000F80E002010B5052801D35A21F3
:1039A00006E00A4901EBC0000179012903D05B213F
:1039B0006920FFF721FF41798279491CC9B28A4207
:1039C00000D04171BDE81040FFF774BFF80E002031
:1039D00070B505250E4E0F4C16E0217806EBC100A0
:1039E0000279012A08D1427983799A4204D0427936
:1039F000827156F8310080472078401CC0B2207098
:103A0000052801D3002020706D1EEDB2E5D270BDF7
:103A1000F80E0020A902002000B509F05FF940B9B6
:103A200009F066F928B909F07AF910B909F08BF9AB
:103A300008B1024800BD024800BD00000C0500406E
:103A400000E7014010B509F07EF930B3EFF31080C4
:103A5000C8B1002172B6124802680368C2F30012AE
:103A600043F0100303604FF0E023D3F80042D3F893
:103A700004321C4300D040BF20BF00BF00BF00BFC6
:103A800000BF12B105E00121E4E7026822F0100254
:103A90000260002900D062B610BD20BF10BD00003A
:103AA00010ED00E0B7CF0000D3CF0000C1CF000081
:103AB000CDCF0000BBCF0000B5CF0000B3CF0000DA
:103AC000D9CF0000C7CF0000ADCF0000A5CF0000C8
:103AD000A9CF00009FCF000070B5050003D0287D5E
:103AE00020B16C7D09E04FF49F711CE0104811B1CA
:103AF00090F8204001E090F821400E4E0120A040B7
:103B0000C6F8080500231A462146304609F073FA24
:103B100006EB84010020C1F81009287830B1012893
:103B200004D040F255116620FFF766FE002070BDFC
:103B3000200F002000F001402DE9F05F9B46164663
:103B4000050018D0C9B1287DDFF84481DFF8449121
:103B5000C8B16C7DFF2C12D04F4A1078FF2810D0CE
:103B6000844204D108EB8000D0F8100988B16FF0CE
:103B70001500BDE8F09FBF215EE0C0215CE0C421DC
:103B80005AE0147005E016B199F8204001E099F868
:103B900021404878C978B04201D0404801E03F4810
:103BA000303800EB81072878D0B1012802D04FF4DB
:103BB000997141E008EBC4004646D0F8140520B1E5
:103BC00006EB8400C0F8107905E03B4621464046EC
:103BD0006A6809F010FA0120A040C6F8040554E014
:103BE000287C40B3002100F051FA82464FF4A071C6
:103BF00001EB8A006A683B4602442146474640463C
:103C000009F0F9F90120A040C7F8040569680AF035
:103C1000FF00EB6801EB8000A3EB0B02C0F840252E
:103C200099F81C004C4680B37EB3E07F617F31B1D0
:103C30001A49303904E0FA216620FFF7DDFD174903
:103C400001EB8007287C012100F020FA06464FF4A2
:103C5000A070696800EB86000A1894F822103B46B1
:103C600047464046083409F0C6F9A07E012181404C
:103C7000C7F80415EB686968A3EB0B02F0B2236880
:103C800001EB8000D21AC0F84025002071E7000047
:103C900000F00140200F002058000020606000402C
:103CA00070B5104D6868A8B1104C0F4901226078BA
:103CB00001EBC0035A6001EB80000026C0F80068E9
:103CC00031462846FFF708FF38B140F2E52166206B
:103CD000FFF792FD4FF0FF3070BDFF2060700020B5
:103CE0006E6070BD440F002000F0014058000020BD
:103CF00070B50C460D490122A1F124050A7000227D
:103D00000A754860103909482B68FFF715FF00282D
:103D10000BD1002205F1180104486B68FFF70CFF76
:103D2000002802D102484470002070BD440F0020DA
:103D30005800002070B51E4C1E4E012594F820102E
:103D400005FA01F0C6F8080500231A4630461C346F
:103D500009F051F92079002106EB8000C0F8101914
:103D6000617905FA01F0C6F8080500231A463046C5
:103D700009F041F96079002106EB8000C0F81019C4
:103D800014F81C0978B114F8221F8D40C6F80855A4
:103D900000231A46304609F02EF92078002106EB60
:103DA0008000C0F81019BDE8704000F0DFB90000D5
:103DB000200F002000F0014070B5114C0546114E57
:103DC000207D58B1E80709D02146607DC97D08B142
:103DD000002200E00122304609F004F9207E00288C
:103DE0000CD0A8070AD5607EE17E08B1002200E071
:103DF00001223046BDE8704009F0F4B870BD000003
:103E0000200F0020006000400D4810B5D0E90112DD
:103E10001143C26800691143014302D04FF0FF30E3
:103E200010BD0848017F21B1C17F407F18B1002239
:103E300002E0002010BD0122034809F0D3F8F8E7A2
:103E400058000020200F00200060004070B5184D81
:103E5000287E48B3174C0026E06828B10121FFF7FF
:103E60003BFE00281FD1E660206928B10021FFF742
:103E700033FE002817D12661287F88B195F82240AB
:103E80000D4D0120A040C5F8080500231A46214623
:103E9000284609F0B0F805EB84010020C1F81009AC
:103EA00000F064F9002070BD4FF0FF3070BD0000DD
:103EB000200F00205800002000F001402DE9F041C3
:103EC000114D06460C46287ED0B105F118000F4F63
:103ED000804646B10146012230466B68FFF72CFE52
:103EE00000280BD1FE6044B10022414620466B6899
:103EF000FFF722FE002801D13C610020BDE8F081DF
:103F00004FF0FF30FAE70000200F0020580000209B
:103F100003490A7D0AB1097C00E000210170704765
:103F2000200F002070B5184D287D48B3174C00268F
:103F3000606828B10121FFF7CFFD00281FD166601E
:103F4000A06828B10021FFF7C7FD002817D1A6609F
:103F5000287F88B195F822400D4D0120A040C5F87A
:103F6000080500231A462146284609F044F805EBC7
:103F700084010020C1F8100900F0F8F8002070BD9D
:103F80004FF0FF3070BD0000200F002058000020CF
:103F900000F001402DE9F041114D06460C46287D08
:103FA000D0B105F114000F4F804646B10146012201
:103FB00030462B68FFF7C0FD00280BD17E6044B16E
:103FC0000022414620462B68FFF7B6FD002801D1AC
:103FD000BC600020BDE8F0814FF0FF30FAE7000040
:103FE000200F0020580000202DE9F047244D044602
:103FF0009946287F16460F4600283FD0E87F697F04
:1040000009B1204901E01F49303901EB8003F9B2C1
:1040100055F80C0F04EB8101401CC1F84005DFF896
:10402000688004EB8702A97D404602F5A07208F083
:10403000E2FF4FF48070D4F80012B84023460143E9
:10404000C4F80012F1B24A46404608F0D4FFF0B27C
:1040500008EB80000021C0F81019012000FA06F1D9
:10406000C8F804154FF4A07101EB870189B2002252
:104070006250A97D8840C8F804050120BDE8F0879A
:10408000200F00206060004000F0014010B50022C9
:104090005FF0010404FA02F3034201D019B1491E92
:1040A000521C042AF6D34AB1012A09D0022A09D0A7
:1040B000032A09D08D216620FFF79EFB002010BD4A
:1040C000012010BD022010BD032010BD38B5254CC5
:1040D000254D207D90B1607DE0B300200090A27D51
:1040E000E17D0023284600F075F8E07D05EB8001B6
:1040F000D1F8100540F00300C1F81005207E90B102
:10410000607E40B300200090A27EE17E002328461E
:1041100000F060F8E07E05EB8001D1F8100540F07A
:104120000300C1F81005207F002812D0607FB8B1CD
:1041300000200090A27FE17F0023284600F04AF88B
:10414000E07F05EB8000D0F8101541F00301C0F8C6
:10415000101538BD00E001E00120BFE70120D2E7E3
:104160000120E6E7200F00200060004070B50B4CF6
:104170002178FF2911D00A4D01208840C5F8080593
:1041800000231A46284608F036FF2078002105EB68
:104190008000C0F81019FF20207070BD580000206A
:1041A00000F0014010B501462422084808F01DFE29
:1041B000074800F04FF8002807D10448017D09B9ED
:1041C000007E08B1FFF782FF002010BD200F002005
:1041D0001442000030B500EB8100039CD0F81015AC
:1041E0000B4D2940C0F81015D0F810154FF47C5530
:1041F00005EA022211434FF4403202EA03424FF42F
:10420000801303EA04531A431143C0F8101530BD5C
:10421000FFC0ECFF093E0000953F0000BD3E0000DE
:10422000253F00004D3E0000B93D0000353D000037
:10423000E93F0000113F0000F13C0000DDCF00002D
:10424000E1CF0000A13C0000014800680068004781
:104250006C00002018B103490860002070474FF03F
:10426000FF3070476C00002001480068006900477B
:104270006C000020014A1268926810476C00002010
:1042800001480068C06800476C000020014A1268BD
:10429000526810476C00002001490968096A084704
:1042A0006C0000200148007870470000AA0200203E
:1042B0000149087070470000AA0200201FB5174C82
:1042C000A079022800D202208DF80100607903282D
:1042D00000D203208DF800002079ADF80400E078CA
:1042E000ADF80200684606F09FFD08B1AE2110E06F
:1042F000A068029002A806F0AFFD08B1B22108E064
:1043000007480068039003A80BF0E9F9002803D0E0
:10431000B621032000F0D0F81FBD00007C00002073
:104320008445000010B528B11422044908F05DFD51
:10433000002010BD6FF0150010BD0000B645000054
:1043400070B56FF02C05B8BB1E4CA07808B1A81151
:1043500070BD29B36FF01500002AF9D008292BD2BF
:10436000DFE801F02A04070A0E11151F10782073E8
:1043700019E01078607316E01068C4F80F0012E0BE
:10438000106860610FE01078B0B9A0730BE021797C
:1043900011B111780229DBD30A4910780C31087366
:1043A00001E010886083074901220C31002008F0E9
:1043B00029FEB0F5803F01DB284670BD0121E17088
:1043C00070BD00007000002038B50D46040020D0FC
:1043D000FDB100F025F9F8B12046FFF7BFFA104C07
:1043E000002204F10C012070284608F00BFE0BF0AF
:1043F00056FD0021207806F0A1FF60788DF80000BE
:1044000068460BF060F9FFF759FF0120A07000200B
:1044100038BD6FF0150038BD4FF0FF3038BD0000DB
:104420007000002070B505000BD0FFF73DFA4FF08B
:10443000FF3420B1FFF71AF9B0F5FA7F04D920460E
:1044400070BD6FF0150070BD0022164B114600BF05
:1044500033F82140844203D303EB8100827803E0E8
:10446000491CC9B20C29F3D30F4C10486270A560E7
:1044700000F0D0F90020A070E0702071EFF31084FC
:1044800072B60B486FF00C0100F0C2FC094800F056
:1044900083FD18B1C421032000F00EF804B962B600
:1044A000002070BD8645000070000020BD42000065
:1044B00000C000404D4600000EB572B6154A956822
:1044C000D5B1002203466E460A2403E0B0FBF4F0A7
:1044D000521CD2B20028F9D1B05409E0B3FBF4F079
:1044E00004FB1030B3FBF4F3521ED2B23030B054A0
:1044F000002AF3D13046A847BFF34F8F0648016822
:10450000064A01F4E06111430160BFF34F8F00BF21
:10451000FDE70000700000200CED00E00400FA054B
:10452000064810B5C1788078014302D04FF0FF30C3
:1045300010BD06F0E7FC002010BD00007000002058
:10454000064810B5C1788078014302D04FF0FF30A3
:1045500010BD06F027FF002010BD000070000020F5
:10456000074810B5C1788278114302D04FF0FF3070
:1045700010BD0121017106F003FF002010BD0000F5
:1045800070000020010001000B0002000A0005007D
:1045900009000A000800140007001E00060032008F
:1045A00005004B0004006400030096000200FA00BE
:1045B0000100F40100003F47708E81954E869DD327
:1045C000A29588F6300A7F5349FD0000054A10B5D0
:1045D000526812B1BDE81040104783210420FFF754
:1045E0006BFF00005C0F0020054A10B5126812B185
:1045F000BDE8104010477D210420FFF75DFF00005B
:104600005C0F0020054A10B5926812B1BDE8104059
:10461000104789210420FFF74FFF00005C0F0020A6
:104620000548016829B1416819B1806808B10120C5
:1046300070470020704700005C0F002002490DC841
:1046400081E80D00002070475C0F0020F8B5124C87
:104650000026256811E00098022802D003280CD11A
:1046600006E0206810B10020266005E028210CE05B
:10467000206868B101202660A847684600F05EFC0B
:104680000028E8D0052805D035210420FFF714FFC5
:104690002D21FAE7F8BD00008C00002070B5144C05
:1046A0000546207840B1A278611C2846921C08F08B
:1046B0009CFB0020207013E00E4806F0CFFC002881
:1046C0000FD00C480078142804D10A213E2008F0AD
:1046D0002FFD38B10749284608F088FD002800D092
:1046E000012070BD0349284608F0BEFFF8E700002E
:1046F00088100020680F002070B50A7882703AB3E5
:10470000012A25D81323037000230AE001EB430498
:1047100000EB4305A678EE706488240A5B1C2C71BC
:10472000DBB29342F2D300230BE000BF01EB430561
:1047300000EB43042E796671AD882D0A5B1CA571D0
:10474000DBB29342F2D3012101EB8200C0B270BD13
:10475000002070BD01210C4A40280CD2202803D82B
:10476000401E8140106802E02138814050680142BB
:1047700007D100207047FF2803D04038814090685F
:10478000F5E7012070470000900000200121401E45
:1047900081400448C068014201D0012070470020D8
:1047A000704700009000002001490068C860704711
:1047B0009000002004490268406842F48C220A609C
:1047C000024A10434860704790000020F8074002FA
:1047D00001490068886070479000002005484FF04C
:1047E000FF310160C90C4160002181601F21C1605F
:1047F000704700009000002010B5FFF7EFFF0AF0AF
:10480000F4FF04460248006800B18047204610BD0E
:10481000A00000200149086070470000A0000020AF
:10482000022101804180002101713F21417147F245
:104830004701C18001498160002070478E81954EFB
:104840003EB50446694609F0B8FB70B140F212214A
:1048500008E000BFBDF80400214600F0AFF820B129
:1048600040F217211720FFF727FE684600F058F89E
:104870000028EFD03EBD000010B520B140F26B1112
:104880001720FFF719FE0148007810BD8C11002099
:10489000F8B5054619440698FF2902D940F23711A8
:1048A00012E09A4202D94FF49C710DE0CCB200950F
:1048B000844200D2044655B10026E81C20F00300D3
:1048C000A84206D040F23F111720FFF7F5FD012660
:1048D000F3E7124F314668463B7000F0E1F80020E4
:1048E00003460099C91C21F00301009166B907EB4A
:1048F00080029160002105E0D2F808C04CF8213018
:10490000491CC9B2A142F7D30099401C01EB8401B4
:10491000009110F0FF00E4D0481BF8BD8C1100207E
:1049200070B5044609F09EFB08B1102070BD2578D3
:1049300000F0F2F802460C48618800EB85000EE0BA
:10494000836853F8213043B14A1C6280A18080689B
:1049500050F82100A060002070BD491C89B291422E
:10496000EED36180052070BD8C1100202DE9F0414F
:1049700049B9114C00273B464FF6FF7604EB810501
:1049800014F801C00DE00020BDE8F081DC19D5F875
:1049900008E0A4B25EF824E0BEF1000F04D05B1C76
:1049A0009BB29C45F2D8344604802046B442EAD0FB
:1049B000BDE8F04100F02CB88C11002070B506461F
:1049C000A0F57F4043F20205FF381AD009B1072055
:1049D00070BD304600F054F8040012D00A48214659
:1049E000026830469047094D0020A96841F826002A
:1049F00000F088F802462146686809F0B6FA0020FF
:104A000070BD284670BD00002C4B00008C110020AA
:104A10002DE9F04190460E46074609F0DEFA48B10E
:104A2000154800EB8605A86850F8270028B140F229
:104A3000091114E04FF4847111E06868002818D05F
:104A4000304600F05FF80146686809F040FA04005B
:104A50000ED0A86840F8274026B14FF48A7117207D
:104A6000FFF72AFD05484246214603683846984725
:104A70002046BDE8F08100008C110020284B00008A
:104A800070B50C46054609F0A8FA002805D0034881
:104A900000EB8400806850F8250070BD8C11002068
:104AA0002DE9F843164E8846054600242868C01CA8
:104AB00020F003002860204600F024F8315D4843D0
:104AC000B8F1000F01D0002200E02A6801460092F0
:104AD00032B100274FEA0D0009F026FA1FB106E0B7
:104AE00001270020F8E706EB8401009A4A60296854
:104AF000641C0844286014F0FF04D7D0BDE8F88394
:104B00008C110020034931F810004FF6FC71C01CD5
:104B100008407047244B00000148007870470000AF
:104B20008C110020D8010000EFDF000075EF0000BD
:104B30002DE9FF4F264C804681B020689A46934667
:104B400058B1027A424503D9416851F8280040B172
:104B500043F2020005B0BDE8F08FA5211820FFF751
:104B6000ABFC1946029809F05AFA86B258460E99DB
:104B700009F04CFA85B27019001D87B22068A14671
:104B80003946006809F0A3F904001FD0678025802A
:104B90002946201D0E9D07465A460123009509F01F
:104BA000F5F82088314638440123029ACDF800A058
:104BB00009F0ECF82088C119384609F018F9D9F83D
:104BC00000004168002041F82840C3E70420C1E705
:104BD000A400002070B5144C23688BB1197A81426F
:104BE00012D95A6852F8201071B1002542F82050AD
:104BF0004A88186809F0B9F9216800200A7A0CE09F
:104C0000C8211820FFF758FC43F2020070BD4B6822
:104C100053F8203033B9401CC0B28242F7D808683C
:104C200009F098F9002070BDA40000202DE9F041A2
:104C30000D46040090464FF0000609D00027E01C06
:104C400020F00300A04205D086211820FFF734FC95
:104C50000127F4E7CDB11146002009F065F90C30C9
:104C600000EB85068FB90A4F04F10C00AA003C60E6
:104C70002572606000EB850020600021606808F00C
:104C80002EF94146386809F04FF93046BDE8F08109
:104C9000A400002070B5084D286800280AD0002420
:104CA00004E02046FFF796FF641CE4B22868007A0F
:104CB000A042F6D870BD0000A4000020094910B53C
:104CC00002460968002049B10B7A934205D9496828
:104CD00051F82210002900D0081D10BDEE21182027
:104CE000FFF7EAFBA40000200A4910B50246096854
:104CF000002059B10B7A934207D9496851F8221024
:104D0000002902D031F8040B084410BDFC21182002
:104D1000FFF7D2FBA4000020094910B5074808603E
:104D2000084B112003EBC0040022C4F81025C4F87E
:104D30001425401CC0B21428F4D310BD0000FEFF9F
:104D400008F5014000F0014070B520240021012346
:104D500020FA01F2D20720D04AB2002A10DB00BFAD
:104D60004FEA52164FEA860602F01F0506F1E026CA
:104D700003FA05F5C6F88051BFF34F8FBFF36F8F6D
:104D80000BDB02F01F054FEA52124FEA820202F1DA
:104D9000E02203FA05F5C2F8805201F10101A142B7
:104DA000D6D370BD70B542004FF0000101D5144A52
:104DB0001160C0F38032C0F3C0339A4203D0642143
:104DC0001B20FFF779FB10F4404F14D00D4A01204F
:104DD0005060831EC2F808330B4A9060C2F800127C
:104DE000C2F80833094C2160251D28609060C2F884
:104DF000083321602860BDE87040FFF78DBF0000D8
:104E000004E5014000E0004000F0004000F50040F3
:104E100070B50A4C0D462060FFF7C4FF2068FFF70D
:104E200093FF00F077F8FFF777FF09F010F92846B5
:104E300000F0AAF8BDE8704000F0C2B8A800002059
:104E40002DE9FC5F2F4E83463068019001272E48E4
:104E500007F022FFDFF8B08020B9002708F1010039
:104E600007F031FF294C00254FF003090120606055
:104E7000C4F80051C4F80451C6F800B02060DFF84F
:104E800090A017E0DAF80000C00613D50E2009F054
:104E9000CFF8EFF31080009072B6C4F80493D4F802
:104EA000000120B9D4F8040108B9FEF7CBFD009841
:104EB00000B962B6D4F8000118B9D4F8040100288A
:104EC000E0D0D4F804010028D0D137B10198306087
:104ED00008F1010007F0E0FE11E008F1010007F021
:104EE000DBFE0028BAD1C4F80893C4F80451C4F812
:104EF00000510E2009F09CF8034807F0E4FE002062
:104F0000BDE8FC9F04E50040AB02002000E000404B
:104F100010ED00E010B5084807F0D1FE08B12421DB
:104F200006E00548401C07F0CAFE002803D02821EF
:104F30001D20FFF7C1FA10BDAB02002070B511496A
:104F40000A68EAB100231D4601244A68521C4A60DF
:104F50000C2A00D34D600E7904FA06F20E68164250
:104F60000BD0EFF3108372B60C6894430C6003B956
:104F700062B649680160002070BD5B1C0C2BE4D355
:104F8000052070BDAC000020024800210160416096
:104F900070470000AC00002010B5084C617809B1E2
:104FA0000F2010BDFEF7DAFC2070FF2801D0002092
:104FB00010BD76211F20FFF77FFA0000B40000200B
:104FC0000149002048707047B40000200648074A95
:104FD000818C5288914204D190F8220008B10020BF
:104FE00070470120704700007816002098020020CA
:104FF0000149488070470000980200200848094A8B
:10500000818C5288914209D14FF6FF71818410F84A
:10501000221F19B100210170012070470020704744
:105020007816002098020020074810F8221F012956
:1050300007D00121017005480349008888840120B8
:10504000704700207047000078160020980200206A
:105050000649074B8A8C5B889A4205D191F8222039
:1050600012B10160012070470020704778160020BF
:105070009802002009498A8CA2F57F43FF3B02D0A9
:105080000021016007E091F822200449012A02D0A2
:105090000160012070470020704700007816002052
:1050A000014908807047000098020020054900204F
:1050B00081F822004FF6FF708884034908804880F9
:1050C00070470000781600209802002005498A8C5D
:1050D000824205D1002081F822004FF6FF708884BB
:1050E00070470000781600200A4A10B1012807D046
:1050F0000EE0507860B1D2F802000860D08804E079
:10510000107828B1906808609089888001207047E5
:1051100000207047AD020020084A012338B1012861
:1051200004D113700868906088889081704753702C
:105130000868C2F802008888D0807047AD0200205D
:10514000064910B1012802D005E0487800E008784F
:1051500008B101207047002070470000AD02002018
:105160000149487470470000320B002078B513499C
:105170004A7C0AB30A7C8DF80020009A00929DF8C0
:105180000020CAB1002301F110021F24A1F1520531
:105190000E7C8DF80060009E00969DF800604EB178
:1051A000137043700470D5F85A604660D5F85E609D
:1051B0008660EDE7012078BD002078BD320B00202D
:1051C00010B5044600F048F918B1BD212720FFF7BB
:1051D00073F90348012109F039FB0248C46210BD8C
:1051E000100B0020D0000020014901208871704779
:1051F000D00000202DE9F0475C4D089C2E78EEBBD6
:10520000E2B3DBB3D4B305F11406C5E90E0186E8B9
:105210001C000027AF716F71EF70AF702F71AF81FD
:10522000EF8100F057F9064600F04EF9044606F00B
:10523000F9FC06F019FA94F9660006F07BFD04F11A
:10524000100006F065FE04F10C0006F055FE96F81D
:10525000230006F077FE94F86210002006F0A2FB0F
:1052600000287CD0032006F071FC414806F00EFCBB
:105270002088FFF739FD2863208800E006E0FFF76B
:105280001DFD686394F86F0018B112E04FF48A7145
:1052900069E0A06E68B1708EB188884209D1B4F817
:1052A0006C1001220844708694F86E00A16EFDF720
:1052B00041FA06F16801DFF8BC9091E80E1009F19F
:1052C000080888E80E10B16FC9F82110F16FC9F80D
:1052D000251000F06DF90146208EBA4609F07CF8E1
:1052E000A18D814200D208462872A84694F8631026
:1052F000E08EF77CA58E082900D1042109F06CF816
:105300000FB9001D80B2854200D22846C0B288F88D
:105310000900F27C02B104221044C0B288F80700F0
:10532000B4F84C10091D814202D240F2A1111AE0DA
:10533000012000F069FB10480068032811D00B28F9
:105340000FD0484640F852AFC0F804A00948B188D1
:10535000523041802188018096F823100171BDE808
:10536000F08740F2B1112720FFF7A6F8D000002007
:10537000985B0000E00A0020501500402DE9F0473E
:10538000054600F0A7F8334E0446706A47780DB121
:10539000012D03D1716B07F0A3FE707070784FF090
:1053A00000084FF0010950B101281AD0022834D06A
:1053B000032848D040F2F1312720FFF77DF8012D76
:1053C00032D000F0E1F839460122706B08F063FB3F
:1053D00028E000BF84F8088031E000BF84F808901E
:1053E0002DE0012D08D000F0CFF839460022706B77
:1053F00008F051FB022D0BD0D4E91801401C41F1FB
:105400000001C4E91801207A012803D084F808902B
:10541000BDE8F08784F80880FAE7012D04D0706BAE
:1054200008F04FFD022DF3D0D4E91801401C41F1E2
:105430000001C4E91801207A0128CFD1CAE7BDE8EC
:10544000F04705F069BA012DE2D0706B08F039FD24
:10545000F5E70000D00000200448007808B10C20D7
:10546000704703490020487470470000D0000020B6
:10547000320B00200F4810B5017839B100780128AF
:1054800006D040F2C9112720FFF716F800F092F974
:1054900000F01AF890F86F1000290AD1816E0029E7
:1054A00007D090F86E000022BDE810401146FDF7CD
:1054B00041B910BDD0000020024A93890343938173
:1054C00052691047D0000020014840687047000032
:1054D0000801002001484068703070470801002032
:1054E000014A002152691047D000002070B5FFF733
:1054F000F1FF0446FFF7E8FF0546214609F017F8DB
:10550000A97F012914D1002812D00A4901204A6834
:105510002988A2F88611617A82F88811A17A82F826
:10552000891102F5C2721070BDE8704005F0F4B93F
:1055300070BD00000801002070B5054601291CD887
:10554000104CA1698847C0B16079B0B9012D16D15E
:1055500004F110000078C10605D4E16A0978C90693
:1055600001D4012100E00021A26A1AB962890AB1BE
:10557000C00602D5A089014301D0012070BD0020E2
:1055800070BD0000D000002010B5084CA06A38B1F2
:105590006289616AD21C07F028FCA06A606210BDB3
:1055A0004FF487612720FEF787FF0000D00000201E
:1055B00010B5FFF789FF0446FFF78CFF417B0A4ACD
:1055C000242908D0807B242805D094F86200042880
:1055D00000D1082010BD506890F8221194F86200A4
:1055E000BDE8104008F0CBBD080100202DE9F843CC
:1055F00088460646FFF76EFF4A4C002705468DF8A1
:1056000000702078022804D040F289412720FEF75C
:1056100053FFA07B400606D44020FFF761FFE089DE
:1056200040F04000E081E87CC6B306F095F806F053
:1056300079F868B9E87C58B1606A417841B100787E
:10564000297AC0F3C000884202D10120A0704AE04C
:10565000606A4178618121B1606B08F0FFFBA06254
:1056600000E0A762E08940F48070E081606AE97937
:105670000078C0F38000884205D000F035F9E08959
:1056800040F48060E081606A297A0078C0F3C0004D
:1056900088420ED1684600F0E3F80AE0FFE708B15F
:1056A00006F054F8E078401CE070E08940F40070A7
:1056B000E0811D4DB8F1000F04D1E1780120FFF722
:1056C0003BFFA0B19DF8000010B10020FFF756FE8F
:1056D00036B1E7706879401C6871FFF707FF02E098
:1056E000A879401CA87100F065F8BDE8F8839DF822
:1056F000000010B10120FFF741FE002000F084F906
:105700009DF8000010B10220FFF738FE36B1E770B7
:105710006879401C6871FFF7E9FEE6E7A879401C4C
:10572000A871E2E7D0000020320B00202DE9F04103
:105730000E468046FFF7CEFE1D4D04462878012810
:1057400004D040F247412720FEF7B6FE60780127DB
:1057500028B10020607001460420FFF7ADFE296AE1
:105760000878C043800709D1A079D0B90220FFF79B
:10577000A3FE286A0078C043800712D0286A4078C8
:1057800010B10220A07100E0A77136EA080604D02B
:1057900000210846FFF7D0FE28B1BDE8F04100F037
:1057A00009B80320EEE7BDE8F041002000F0E2B8C0
:1057B000D000002010B506F061F805F055FF0D4C43
:1057C000E089FFF78DFEE2696179A07890470A4889
:1057D000407C58B10848523850F8521F81604168E7
:1057E000C16005480121017405F096F80020207081
:1057F00010BD0000D0000020320B0020084810B57A
:105800000078022804D040F201212720FEF754FE40
:1058100004490120C871BDE81040FFF7CBBF00006C
:10582000D0000020320B002030B40C4B42B9DA79A2
:10583000FF2A05D190F8632090F86240A2420BD075
:1058400031B1DA7990F8631030BC104606F068BBCD
:10585000FF2290F86210F7E730BC7047D0000020BC
:105860002DE9F0410746FFF735FE04461D480026A6
:105870000125416A0A7802F00302012A15D0022AA2
:1058800013D0032A03D0417941F0040124E065706C
:10589000C28942F40062C2810120FFF70DFE1DE0C3
:1058A0002672BDE8F0812572FBE74978B1B1C28963
:1058B00042F40062C281826A002AF2D0FB2908D831
:1058C000807920B1BDE8F0412020FFF709BE3D708E
:1058D000E7E7417941F010014171E2E7207A0128C0
:1058E000E1D1DDE7D000002070B5FFF7F3FD0446FD
:1058F0008079002827D002280DD11848006B08F0C5
:10590000A3F808B3D4E91601401C41F10001C4E931
:10591000160105F001F80025A571A078012670B1E7
:10592000A570FFF76BFB90B100210820FFF7C4FDC5
:10593000D4E91601401C41F10001C4E91601E079E7
:10594000012809D0E67170BD4FF4637101E04FF496
:1059500069712720FEF7B0FDE57170BDD000002011
:1059600003480078002801D0FFF724BF70470000EB
:10597000D00000202DE9F0478146FFF7A5FD06463F
:10598000FFF7A8FD1D4C05464A46E06A606201210A
:105990003046FFF749FFE87C4FF00008C0B1677A56
:1059A000174806F0CDF9174880F81880D5E9181285
:1059B000C0E90412124A616A05F046FE96F86300D7
:1059C00008F0CFFB02463946012005F06BFE04E0EB
:1059D000606A06F0B5F905F047FEB9F1000F02D193
:1059E000404606F05BF8002196F862300122084636
:1059F00006F030FA02202070BDE8F087D0000020C9
:105A0000E0090020E80A00202DE9FC410446FFF7E8
:105A100061FD0546FFF758FD0646DFF87081224616
:105A20000021FFF701FFA8790127A8F1200440B168
:105A300001281FD002282FD003283BD040F29E21FE
:105A400057E0217A4820ADF8041081534046FFF713
:105A5000FFFA28B18020216AFFF72EFDAF702DE0FC
:105A60006A4601A9206B08F094FB206210B195F8FA
:105A7000451011B14648206220E09DF8001029B978
:105A8000002101808170012108F0E0FEBDF80410C2
:105A9000206A08F0A9FE11E0B6F84800ADF804004D
:105AA0006A4601A9206B08F074FB206230B940F20D
:105AB0008F211EE04046FFF7CBFAC0B1206A0823D1
:105AC000017821F008010170EA7903EAC20211436A
:105AD00021F0040101702A7A042303EA82021143AF
